:020000040000FA
:04000000FEEF17F008
:1024420094500F09946E1200F72FED2FEF2FF12FFA
:10245200F32FF52FF92F35EC12F088EC12F021EC66
:1024620012F043EC12F01200C08EC09AC088C096DF
:10247200C090C082C094C292C19AC198C46AC36A11
:10248200C2801200948E949CAC9CAC8AAC98AC96A0
:10249200AC84AB8EAB9CAB88B896810EAF6E9E9827
:1024A2009E9A120001C003F058EF12F0012A015067
:1024B200D96EDA6ADF50D8A461EF12F063EF12F03E
:1024C20057EF12F00350015C016E026A01BE020670
:1024D200120001C003F0070E0316050E046ED89019
:1024E2000336042E70EF12F003500F01426F01C049
:1024F20003F002C004F0D89004320332D8900432C0
:102502000332D890043203320350416F1200939485
:1025120093861F0E6F166F8E800E6E18D8A494EFDE
:1025220012F096EF12F08DEF12F0776AE10E706EF4
:102532001B0E716E030E726E0D01D46B1F0E6F16A1
:102542006F50606A608A608C12004A0EF66E240E2A
:10255200F76E000EF86E00EE60F010EE0EF009005D
:10256200F5CFEEFFE550E150FAE1000EF66E300EC7
:10257200F76E000EF86E0900F5CF5BF05A6A000E96
:10258200F86E00016BEF14F0076E07C003F0D890ED
:102592000336D8900336C250C30B0310C26EC282F8
:1025A200C2B2D6EF12F0D8EF12F0D1EF12F0C35050
:1025B200C4CF03F0046A03C004F0036A0310056E7B
:1025C2000450066E05C001F006C002F01200010EB2
:1025D200E7EC13F0026E0E0E0218D8A4F3EF12F01D
:1025E200F5EF12F000EF13F0060E5A60FBEF12F057
:1025F200FDEF12F012EF13F05A2A12EF13F00D0E44
:102602000218D8A407EF13F009EF13F012EF13F03A
:102612005A50D8B40FEF13F011EF13F012EF13F07A
:102622005A065A501200140E1A6EAE0E1B6E230E6C
:102632001C6E410E1D6E040EC5EC12F001C008F0B6
:1026420002C009F00A6A0B6A000E55EC15F008C0C8
:1026520016F009C017F00AC018F00BC019F02FECE1
:1026620016F016C02FF017C030F018C031F019C0A4
:1026720032F0D2EC14F02FC03BF030C03CF03BC043
:1026820039F03CC03AF012000A500B10D8B44CEFAB
:1026920013F04EEF13F072EF13F0010E0C6E56EFC3
:1026A20013F0D8900A360B360C2A0BAE5BEF13F000
:1026B2005DEF13F052EF13F00A50085C0B5009580B
:1026C200D8A066EF13F068EF13F06CEF13F00A5026
:1026D200085E0B50095AD8900B320A320C2E5DEF6D
:1026E20013F008C008F009C009F012000F01436B93
:1026F200446B05C001F006C002F06AEC12F008C09B
:1027020045FF460E0C6E0F0E0D6E0F6A000E0E6E1A
:1027120099EF13F007500E24D96EDA6A0E500C248A
:10272200E16E0F500D20E26EDFCFE7FF0E4A0F2A57
:102732000850096E0A6A09500E5C0F50800A0B6E2F
:102742000A50800A0B58D8A0A9EF13F0ABEF13F090
:102752008BEF13F00F0140871200066A000E056E20
:1027620003500410D8B4B8EF13F0BAEF13F0E2EF4D
:1027720013F0010E076EC2EF13F0D8900336043641
:10278200072A04AEC7EF13F0C9EF13F0BEEF13F040
:10279200D890053606360350015C04500258D8A082
:1027A200D5EF13F0D7EF13F0DCEF13F00350015E17
:1027B2000450025A0580D89004320332072EC9EF22
:1027C20013F005C001F006C002F01200016E010410
:1027D200D8A4EEEF13F0F0EF13F015EF14F08250DF
:1027E2000F0B0F0AD8B4F8EF13F0FAEF13F007EF5C
:1027F20014F05B50D8B400EF14F002EF14F007EFBE
:1028020014F05B6A82500F0B20EF14F082500F0B12
:102812000F0AD8A40FEF14F011EF14F01FEF14F009
:10282200010E5B6E1FEF14F00150D8A41BEF14F0E1
:102832001DEF14F01FEF14F003EF14F0FF0E12005F
:102842000F50D96EDA6A046A640E036E0DC001F08D
:102852000EC002F0AEEC13F001C008F002C009F0A5
:102862000B6A0A0E0A6E45EC13F00850300FDF6E49
:102872000F50D96EDA6A010ED926046A0A0E036E67
:102882000DC001F00EC002F0AEEC13F001C008F072
:1028920002C009F00B6A0A0E0A6E45EC13F00850EA
:1028A200300FDF6E0F50D96EDA6A020ED9260DC0D4
:1028B20008F00EC009F00B6A0A0E0A6E45EC13F01E
:1028C2000850300FDF6E0F50D96EDA6A030ED92628
:1028D200DF6A12002CEC12F020EE60F010EE3EF0F7
:1028E2000D0EDBCFE3FFE806FCE214EC13F039C077
:1028F20056F03AC057F0E8EC12F03D6E3D50586E7B
:10290200596A58505910D8A489EF14F08BEF14F07B
:102912008EEF14F0576A000E566E56C00DF057C077
:102922000EF04C0E0F6E21EC14F0066A100E056EBE
:102932004C0E076E4C0E016E53EC12F00150086EF5
:1029420077EC13F00B0E536EB80E526E5206D8A0EF
:102952005306522806E15328D8A4B2EF14F0B4EF7C
:1029620014F0A7EF14F0066A200E056E580E076EDB
:10297200010E086E77EC13F00B0E556EB80E546E06
:102982005406D8A05506542806E15528D8A4CCEF01
:1029920014F0CEEF14F0C1EF14F076EF14F0FEEF66
:1029A20017F031343234386E3850D8A4DBEF14F0DB
:1029B200DDEF14F0E7EF14F0000E2F6E000E306E14
:1029C200000E316E000E326E54EF15F02FC033F050
:1029D20030C034F031C035F032C036F0200EF7EF9F
:1029E20014F0D8903632353234323332E82EF2EFE8
:1029F20014F03350376E318EFF0E2F16FF0E301645
:102A0200FF0E3116000E3216960E385E38BE0EEFED
:102A120015F00CEF15F024EF15F03850800A970FDF
:102A2200D8B016EF15F018EF15F01AEF15F0DDEF2C
:102A320014F0D8903232313230322F32383E1AEF1F
:102A420015F03CEF15F01F0E38642AEF15F02CEF4D
:102A520015F034EF15F0DDEF14F0D8902F36303644
:102A62003136323638063850D8A43AEF15F03CEFFA
:102A720015F02EEF15F03750D8B442EF15F044EFB1
:102A820015F04CEF15F0321E311E301E2F6C000E69
:102A92003022312232222FC02FF030C030F031C02C
:102AA20031F032C032F01200106E1050D8B45CEF28
:102AB20015F05EEF15F080EF15F00BBE65EF15F027
:102AC20063EF15F080EF15F008C00CF009C00DF0AF
:102AD2000AC00EF00BC00FF00C1E0D1E0E1E0F1EB4
:102AE2000C2A000E0D220E220F220CC012F00DC075
:102AF20013F00EC014F00FC015F088EF15F008C0E7
:102B020012F009C013F00AC014F00BC015F00850FF
:102B120009100A100B10D8A491EF15F093EF15F0DD
:102B22009DEF15F0000E086E000E096E000E0A6E83
:102B3200000E0B6E2EEF16F0960E116EA7EF15F02B
:102B4200112AD8901532143213321232000E121496
:102B52000C6E000E13140D6E000E14140E6EFE0E8B
:102B620015140F6E0C500D100E100F10D8A4BCEFE0
:102B720015F0BEEF15F0A1EF15F0CCEF15F0112A0C
:102B8200010E1226000E132214221522D89015329D
:102B9200143213321232000E12140C6E000E131481
:102BA2000D6E000E14140E6EFF0E15140F6E0C50E7
:102BB2000D100E100F10D8A4E1EF15F0E3EF15F091
:102BC200C0EF15F0EBEF15F01106D8901236133660
:102BD2001436153614BEF0EF15F0F2EF15F0FAEFD9
:102BE20015F0020E1160F8EF15F0FAEF15F0E5EFAF
:102BF20015F011B0FFEF15F001EF16F002EF16F02D
:102C0200149ED890113211C00CF00D6A0E6A0F6A30
:102C12000CC00FF00E6A0D6A0C6A0C5012120D50A5
:102C220013120E5014120F5015121050D8B41CEF7C
:102C320016F01EEF16F026EF16F00BBE25EF16F07B
:102C420023EF16F026EF16F0158E12C008F013C00F
:102C520009F014C00AF015C00BF012001950800BD5
:102C6200266E195019242D6E18AE3AEF16F03CEF6D
:102C720016F03DEF16F02D802D50D8B443EF16F02C
:102C820045EF16F059EF16F02D28D8A44BEF16F0A9
:102C92004DEF16F055EF16F0000E166E000E176E81
:102CA200000E186E000E196E188E196A61EF16F07A
:102CB200000E166E000E176E000E186E000E196EC4
:102CC2001D50800B261A1D501D242E6E1CAE6CEF5B
:102CD20016F06EEF16F06FEF16F02E802E50D8B46D
:102CE20075EF16F077EF16F08BEF16F02E28D8A4BA
:102CF2007DEF16F07FEF16F087EF16F0000E1A6EDA
:102D0200000E1B6E000E1C6E000E1D6E1C8E1D6AC8
:102D120093EF16F0000E1A6E000E1B6E000E1C6E64
:102D2200000E1D6E1A501B101C101D10D8A49CEF13
:102D320016F09EEF16F0B6EF16F0000E166E000EAD
:102D4200176E000E186E000E196E800E18127F0E8E
:102D520019122650191216C016F017C017F018C013
:102D620018F019C019F0F5EF17F02D50D8A4BCEFE8
:102D720016F0BEEF16F0C8EF16F0000E166E000E3B
:102D8200176E000E186E000E196EF5EF17F02E502A
:102D92002DC01EF01F6A1E5E000E1F5A7F0E1E24DB
:102DA200276E000E1F20286E16C022F017C023F0D7
:102DB20018C024F019C025F0000E166E000E176E12
:102DC200000E186E000E196E000E296E000E2A6E8D
:102DD200000E2B6E000E2C6E2E6A28EF17F02E506E
:102DE200D8B4F6EF16F0F8EF16F00FEF17F0D89010
:102DF2002236233624362536D8901636173618361C
:102E020019362CAE07EF17F009EF17F00AEF17F09B
:102E12001680D89029362A362B362C361A50225C48
:102E22001B5023581C5024581D502558D8A01CEF65
:102E320017F01EEF17F027EF17F02C8C1A50225EB6
:102E42001B50235A1C50245A1D50255A2E2A190E43
:102E52002E642EEF17F030EF17F0F0EF16F022503D
:102E6200231024102510D8B439EF17F03BEF17F0D8
:102E720053EF17F0298053EF17F0D8901636173614
:102E8200183619362CAE48EF17F04AEF17F04BEF11
:102E920017F01680D89029362A362B362C3627067C
:102EA200D8A0280618AE58EF17F05AEF17F03EEFE9
:102EB20017F02E6A2CAE60EF17F062EF17F086EF74
:102EC20017F0FF0E29141E6EFF0E2A141F6EFF0E3E
:102ED2002B14206E7F0E2C14216E1E501F102010FA
:102EE2002110D8B477EF17F079EF17F07DEF17F0D4
:102EF200010E2E6E86EF17F016A082EF17F084EF08
:102F020017F086EF17F079EF17F02E50D8B48CEF48
:102F120017F08EEF17F0B2EF17F0010E1626000E23
:102F220017221822192219A099EF17F09BEF17F018
:102F3200B2EF17F016C01EF017C01FF018C020F035
:102F420019C021F02134213220321F321E321EC01C
:102F520016F01FC017F020C018F021C019F0274A40
:102F6200282A28BEBDEF17F0285008E12728D8A04C
:102F7200BDEF17F0BFEF17F0CAEF17F0000E286E83
:102F82002768000E166E000E176E000E186E000EE9
:102F9200196E28BED7EF17F0285006E12704D8B0E3
:102FA200D5EF17F0D7EF17F0E3EF17F0286A000E0E
:102FB200276E000E166E000E176E000E186E000EB3
:102FC200196E266A27C02DF02DA0EAEF17F0ECEF5C
:102FD20017F0EFEF17F0188EF0EF17F0189ED89059
:102FE2002D30196EAAEF16F01200003100320033B4
:0F2FF20000340035004E00520000A6EF12F0012F
:020000040020DA
:08000000FFFFFFFFFFFFFFFF00
:020000040030CA
:0E000000FF071F1FFF8285FF0FC00FE00F409C
:00000001FF
