:020000040000FA
:04000000FEEF17F008
:1029D800939E9390819E819012002BEC15F09AECB7
:1029E80015F0ECEC14F01200F62FEC2FEE2FF02F70
:1029F800F22FF42FF82FF1EC14F0000E016E010EF7
:102A080060EC15F0B10E036E2F0E046E800E056E8D
:102A180048EC16F0C8EC16F00EEF15F0FEEF17F0C4
:102A2800F00EF66E290EF76E000EF86E00EE27F027
:102A380010EE0EF00900F5CFEEFFE550E150FAE197
:102A4800366A356A000EF86E0001FFEF14F0956AD9
:102A58009450F80B946E8290000E016E020E60EC9A
:102A680015F0000E016E380E60EC15F0000E016EC8
:102A78000C0E60EC15F0000E016E010E60EC15F006
:102A8800120020EE27F010EE08F00D0EDBCFE3FF6A
:102A9800E806FCE20650D96EDA6ADF50020DF35000
:102AA800080FD96EDA6ADECF03F0DDCF04F0CE0E60
:102AB800056E48EC16F01200026E01B066EF15F0D4
:102AC80069EF15F082826AEF15F0829202C083FFE7
:102AD80082848294958E828082928284829483BE3C
:102AE80078EF15F07AEF15F071EF15F08290959E5A
:102AF80012006150036E046AD89003360436D890E9
:102B080003360436D890033604366238E842070B99
:102B1800070B056E066A03500510076E0450061071
:102B2800086E07C001F008C002F012009394938663
:102B38001F0E6F166F8E800E6E18D8A4A6EF15F0B4
:102B4800A8EF15F09FEF15F0776AE10E706E1B0E77
:102B5800716E030E726E0D01D46B1F0E6F166F50DF
:102B6800606A608A608C1200116AC6EF15F0065020
:102B78001124D96EDA6A1150080FE16EE26ADFCFCC
:102B8800E7FF112A0750115CD8A0CDEF15F0CFEF61
:102B980015F0BBEF15F00750080FD96EDA6ADF6A37
:102BA800C50E036E2F0E046EC90E056E48EC16F0A6
:102BB800080E036E046AC90E056E48EC16F0120082
:102BC800156A000E146EF5EF15F006501424D96E30
:102BD800DA6A14500B0FE16EE26ADFCFE7FF144A9E
:102BE800152A0750086E096A0850145C1550800AA7
:102BF8000A6E0950800A0A58D8A005EF16F007EFA8
:102C080016F0E9EF15F007500B0FD96EDA6ADF6A94
:102C18000B0E036E046AC00E056E48EC16F0120027
:102C280019EF16F0012A024A032A0150D96EDA6A0E
:102C3800DF50046E02C0F6FF03C0F7FF0800F5502E
:102C48000418D8A42AEF16F02CEF16F037EF16F078
:102C58000150D96EDA6ADF50D8A435EF16F037EF95
:102C680016F016EF16F00150D96EDA6ADF50046ECE
:102C780002C0F6FF03C0F7FF0800F550045C016EC0
:102C8800026AD8A002061200000E016E055060EC20
:102C980015F065EF16F0010E016E03C0F6FF04C0D3
:102CA800F7FFF86A050EF76403D00800F55005D061
:102CB800F6CFE9FFF7CFEAFFEF5060EC15F0034AD3
:102CC800042A03C0F6FF04C0F7FFF86A050EF7648C
:102CD80003D00800F55005D0F6CFE9FFF7CFEAFF9B
:102CE800EF500009D8A47BEF16F07DEF16F04FEFF8
:102CF80016F0120060AE83EF16F085EF16F0C3EF02
:102D080016F07DEC15F00950D96EDA6A01C0DEFFC5
:102D180002C0DDFF0B50D96EDA6A65CFDFFF660EA1
:102D28000F6E0F0E106E126A000E116EAAEF16F0DB
:102D380011500F24D96E12501020DA6E0A50112447
:102D4800E16EE26ADFCFE7FF114A122A0B50D96E13
:102D5800DA6ADF500C6E0D6A0C50115C1250800A52
:102D68000E6E0D50800A0E58D8A0BDEF16F0BFEFBA
:102D780016F09CEF16F0609EA490C7EF16F00B506B
:102D8800D96EDA6ADF6A1200240E096E180E0A6E0E
:102D9800260E0B6E7EEC16F00B0E236EB80E226E0E
:102DA8002206D8A02306222806E12328D8A4DFEF8C
:102DB80016F0E1EF16F0D4EF16F003EF17F0180E47
:102DC800066E26C007F0B8EC15F021EF17F0180EC4
:102DD800066E26C007F045EC15F021EF17F0180E27
:102DE800066E26C007F0E4EC15F021EF17F0180E78
:102DF800066E26C007F022EC17F021EF17F024C06A
:102E080016F025C017F01750000AD8B40EEF17F0C7
:102E180021EF17F01650100AD8B4E3EF16F0300A75
:102E2800D8B4EBEF16F0100AD8B4F3EF16F0600A36
:102E3800D8B4FBEF16F021EF17F01200020E136E54
:102E4800146A156A33EF17F006501524D96EDA6A3A
:102E58001550090FE16EE26ADFCFE7FF152A075028
:102E6800155CD8A03AEF17F03CEF17F028EF17F0F1
:102E78000750090FD96EDA6ADF6A090E016EDC0E97
:102E8800026E2F0E036E14EC16F001500210D8A437
:102E980050EF17F052EF17F05EEF17F0010E146EB7
:102EA800CA0E036E2F0E046EC50E056E48EC16F0A2
:102EB800B2EF17F0090E016EE40E026E2F0E036ECC
:102EC80014EC16F001500210D8A46DEF17F06FEF54
:102ED80017F07BEF17F0800E146ED10E036E2F0ED5
:102EE800046EC50E056E48EC16F0B2EF17F0090E29
:102EF800016EE80E026E2F0E036E14EC16F00150F0
:102F08000210D8A48AEF17F08CEF17F098EF17F09B
:102F1800810E146ED70E036E2F0E046EC50E056E4D
:102F280048EC16F0B2EF17F0090E016EE00E026ED3
:102F38002F0E036E14EC16F001500210D8A4A7EF60
:102F480017F0A9EF17F0B2EF17F0146AC20E036E6C
:102F58002F0E046EC50E056E48EC16F0362A3604A0
:102F6800086E1350085CD8A0BCEF17F0BEEF17F03E
:102F7800D7EF17F0366A3550D8B4C5EF17F0C8EF59
:102F880017F0010EC9EF17F0000E356E3550D8B4A2
:102F9800D0EF17F0D2EF17F0D6EF17F014C081FF7B
:102FA800D7EF17F0816A12000052504D2020494E89
:102FB800442053504420474541004F464620202096
:102FC80020004C4546202020005249472020004838
:102FD800415A20004C4546004F464600524947009A
:102FE80048415A00310032003300340035004E00A9
:032FF80052000084
:042FFC0014EF15F0C9
:020000040020DA
:08000000FFFFFFFFFFFFFFFF00
:020000040030CA
:0E000000FF071F1FFF8285FF0FC00FE00F409C
:00000001FF
