:020000040000FA
:04000000FEEF17F008
:101F760094500F09946E1200BBEC0FF0C6EC0FF0F4
:101F860030EC10F01200C08EC09AC088C096C09087
:101F9600C082C094C292C19AC198C46AC36AC28000
:101FA6001200000EF66E300EF76E000EF86E090087
:101FB600F5CF57F0566A000EF86E0001AFEF12F03B
:101FC60001C003F0E8EF0FF0012A0150D96EDA6A7A
:101FD600DF50D8A4F1EF0FF0F3EF0FF0E7EF0FF0BB
:101FE6000350015C016E026A01BE0206120001C0C6
:101FF60004F002C0F6FF03C0F7FF024A032A042AD0
:102006000404D96EDA6A0800F5CFDFFFDF50D8A4E2
:102016000FEF10F011EF10F0FCEF0FF0120001C0FF
:1020260003F0070E0316050E046ED8900336042E31
:1020360018EF10F003500F01426F01C003F002C009
:1020460004F0D89004320332D89004320332D89088
:10205600043203320350416F1200939493861F0E8D
:102066006F166F8E800E6E18D8A43CEF10F03EEF00
:1020760010F035EF10F0776AE10E706E1B0E716E80
:10208600030E726E0D01D46B1F0E6F166F50606AD1
:10209600608A608C1200076E07C003F0D890033682
:1020A600D8900336C250C30B0310C26EC282C2B2AE
:1020B6005FEF10F061EF10F05AEF10F0C350C4CF8D
:1020C60003F0046A03C004F0036A0310056E0450AB
:1020D600066E05C001F006C002F012000A500B1091
:1020E600D8B478EF10F07AEF10F09EEF10F0010EF2
:1020F6000C6E82EF10F0D8900A360B360C2A0BAE17
:1021060087EF10F089EF10F07EEF10F00A50085CB0
:102116000B500958D8A092EF10F094EF10F098EFFA
:1021260010F00A50085E0B50095AD8900B320A324A
:102136000C2E89EF10F008C008F009C009F0120053
:102146000F01436B446B05C001F006C002F012ECB0
:1021560010F008C045FF460E0C6E0F0E0D6E0F6A8E
:10216600000E0E6EC5EF10F007500E24D96EDA6A17
:102176000E500C24E16E0F500D20E26EDFCFE7FF0C
:102186000E4A0F2A0850096E0A6A09500E5C0F5053
:10219600800A0B6E0A50800A0B58D8A0D5EF10F0B3
:1021A600D7EF10F0B7EF10F00F0140871200010EC5
:1021B6004AEC11F0026E0E0E0218D8A4E5EF10F0EC
:1021C600E7EF10F0EBEF10F0010E566E0FEF11F087
:1021D6000D0E0218D8A4F2EF10F0F4EF10F0F8EF9D
:1021E60010F0020E566E0FEF11F00B0E0218D8A467
:1021F600FFEF10F001EF11F005EF11F0030E566E30
:102206000FEF11F0070E0218D8A40CEF11F00EEF25
:1022160011F00FEF11F0566A56501200066A000EC2
:10222600056E03500410D8B41BEF11F01DEF11F02A
:1022360045EF11F0010E076E25EF11F0D890033629
:102246000436072A04AE2AEF11F02CEF11F021EF25
:1022560011F0D890053606360350015C045002583A
:10226600D8A038EF11F03AEF11F03FEF11F003501C
:10227600015E0450025A0580D89004320332072EBC
:102286002CEF11F005C001F006C002F01200016E3D
:102296000104D8A451EF11F053EF11F078EF11F0CB
:1022A60082500F0B0F0AD8B45BEF11F05DEF11F0FF
:1022B6006AEF11F05750D8B463EF11F065EF11F0E3
:1022C6006AEF11F0576A82500F0B83EF11F08250BC
:1022D6000F0B0F0AD8A472EF11F074EF11F082EF12
:1022E60011F0010E576E82EF11F00150D8A47EEF67
:1022F60011F080EF11F082EF11F066EF11F0FF0E92
:102306001200000E336E000E346E700E356E420EE5
:10231600366E140E1A6EAE0E1B6E230E1C6E410E1A
:102326001D6E52504EEC10F001C008F002C009F0CC
:102336000A6A0B6A000E41EC13F008C016F009C0D9
:1023460017F00AC018F00BC019F01BEC14F016C0F9
:102356002FF017C030F018C031F019C032F0E2EC9F
:1023660015F02FC048F030C049F031C04AF032C0F5
:102376004BF02CEC12F048C054F049C055F054C054
:1023860052F055C053F012000F50D96EDA6A030EA0
:10239600046EE80E036E0DC001F00EC002F011ECE3
:1023A60011F001C008F002C009F00B6A0A0E0A6EAD
:1023B60071EC10F00850300FDF6E0F50D96EDA6AEC
:1023C600010ED926046A640E036E0DC001F00EC01C
:1023D60002F011EC11F001C008F002C009F00B6A1E
:1023E6000A0E0A6E71EC10F00850300FDF6E0F50B7
:1023F600D96EDA6A020ED926046A0A0E036E0DC079
:1024060001F00EC002F011EC11F001C008F002C09C
:1024160009F00B6A0A0E0A6E71EC10F00850300FC4
:10242600DF6E0F50D96EDA6A030ED9260DC008F09A
:102436000EC009F00B6A0A0E0A6E71EC10F0085015
:10244600300FDF6E0F50D96EDA6A040ED926DF6AB6
:1024560012004A344B34516E5150D8A435EF12F065
:1024660037EF12F041EF12F0000E486E000E496E83
:10247600000E4A6E000E4B6EAEEF12F048C04CF0E6
:1024860049C04DF04AC04EF04BC04FF0200E51EF00
:1024960012F0D8904F324E324D324C32E82E4CEF7D
:1024A60012F04C50506E4A8EFF0E4816FF0E49161B
:1024B600FF0E4A16000E4B16960E515E51BE68EF81
:1024C60012F066EF12F07EEF12F05150800A970F6D
:1024D600D8B070EF12F072EF12F074EF12F037EF1F
:1024E60012F0D8904B324A3249324832513E74EF9C
:1024F60012F096EF12F01F0E516484EF12F086EF81
:1025060012F08EEF12F037EF12F0D89048364936B7
:102516004A364B3651065150D8A494EF12F096EF36
:1025260012F088EF12F05050D8B49CEF12F09EEFE4
:1025360012F0A6EF12F04B1E4A1E491E486C000E02
:1025460049224A224B2248C048F049C049F04AC0B5
:102556004AF04BC04BF01200BFEC0FF0536A040E6A
:10256600526E84EC11F052C06FF053C070F06FC021
:102576000DF070C00EF06A0E0F6EC7EC11F0066A11
:10258600300E056E6A0E076E040E086EA3EC10F090
:102596000B0E0001726FB80E716F7107D8A072072B
:1025A600712906E17229D8A4DBEF12F0DDEF12F0F3
:1025B600D0EF12F0DAEC10F00001756F0BEF13F0AC
:1025C600600E016EEF0E026E2F0E036EFAEC0FF028
:1025D6001EEF13F0600E016EEB0E026E2F0E036EF1
:1025E600FAEC0FF01EEF13F0600E016EF30E026EA2
:1025F6002F0E036EFAEC0FF01EEF13F0600E016E55
:10260600F70E026E2F0E036EFAEC0FF01EEF13F0AC
:102616007551000AD8B4E3EF12F0010AD8B4EDEF11
:1026260012F0030AD8B4F7EF12F0010AD8B401EF9A
:1026360013F01EEF13F0066A500E056E600E076E5D
:10264600600E016EE3EC0FF00150086EA3EC10F083
:102656000B0E0001746FB80E736F7307D8A0740762
:10266600732906E17429D8A43BEF13F03DEF13F06C
:1026760030EF13F0B1EF12F0FEEF17F0106E1050BE
:10268600D8B448EF13F04AEF13F06CEF13F00BBE1B
:1026960051EF13F04FEF13F06CEF13F008C00CF08E
:1026A60009C00DF00AC00EF00BC00FF00C1E0D1E77
:1026B6000E1E0F1E0C2A000E0D220E220F220CC01B
:1026C60012F00DC013F00EC014F00FC015F074EF29
:1026D60013F008C012F009C013F00AC014F00BC0C2
:1026E60015F0085009100A100B10D8A47DEF13F04E
:1026F6007FEF13F089EF13F0000E086E000E096EDF
:10270600000E0A6E000E0B6E1AEF14F0960E116E86
:1027160093EF13F0112AD890153214321332123275
:10272600000E12140C6E000E13140D6E000E14140F
:102736000E6EFE0E15140F6E0C500D100E100F10AF
:10274600D8A4A8EF13F0AAEF13F08DEF13F0B8EFAB
:1027560013F0112A010E1226000E1322142215223E
:10276600D8901532143213321232000E12140C6E37
:10277600000E13140D6E000E14140E6EFF0E1514BB
:102786000F6E0C500D100E100F10D8A4CDEF13F0D5
:10279600CFEF13F0ACEF13F0D7EF13F01106D8908C
:1027A600123613361436153614BEDCEF13F0DEEF90
:1027B60013F0E6EF13F0020E1160E4EF13F0E6EF0C
:1027C60013F0D1EF13F011B0EBEF13F0EDEF13F0C0
:1027D600EEEF13F0149ED890113211C00CF00D6A72
:1027E6000E6A0F6A0CC00FF00E6A0D6A0C6A0C5066
:1027F60012120D5013120E5014120F5015121050C3
:10280600D8B408EF14F00AEF14F012EF14F00BBE70
:1028160011EF14F00FEF14F012EF14F0158E12C032
:1028260008F013C009F014C00AF015C00BF012002E
:102836001950800B266E195019242D6E18AE26EFEE
:1028460014F028EF14F029EF14F02D802D50D8B491
:102856002FEF14F031EF14F045EF14F02D28D8A423
:1028660037EF14F039EF14F041EF14F0000E166E46
:10287600000E176E000E186E000E196E188E196A6D
:102886004DEF14F0000E166E000E176E000E186E49
:10289600000E196E1D50800B261A1D501D242E6E1B
:1028A6001CAE58EF14F05AEF14F05BEF14F02E80C4
:1028B6002E50D8B461EF14F063EF14F077EF14F0F4
:1028C6002E28D8A469EF14F06BEF14F073EF14F010
:1028D600000E1A6E000E1B6E000E1C6E000E1D6E94
:1028E6001C8E1D6A7FEF14F0000E1A6E000E1B6E12
:1028F600000E1C6E000E1D6E1A501B101C101D10B3
:10290600D8A488EF14F08AEF14F0A2EF14F0000EAA
:10291600166E000E176E000E186E000E196E800EE3
:1029260018127F0E19122650191216C016F017C06B
:1029360017F018C018F019C019F0E1EF15F02D5076
:10294600D8A4A8EF14F0AAEF14F0B4EF14F0000E18
:10295600166E000E176E000E186E000E196EE1EF61
:1029660015F02E502DC01EF01F6A1E5E000E1F5A57
:102976007F0E1E24276E000E1F20286E16C022F022
:1029860017C023F018C024F019C025F0000E166EEB
:10299600000E176E000E186E000E196E000E296ED0
:1029A600000E2A6E000E2B6E000E2C6E2E6A14EF91
:1029B60015F02E50D8B4E2EF14F0E4EF14F0FBEF6C
:1029C60014F0D8902236233624362536D89016367B
:1029D6001736183619362CAEF3EF14F0F5EF14F05F
:1029E600F6EF14F01680D89029362A362B362C3678
:1029F6001A50225C1B5023581C5024581D50255831
:102A0600D8A008EF15F00AEF15F013EF15F02C8C8F
:102A16001A50225E1B50235A1C50245A1D50255A08
:102A26002E2A190E2E641AEF15F01CEF15F0DCEFA6
:102A360014F02250231024102510D8B425EF15F0D9
:102A460027EF15F03FEF15F029803FEF15F0D890EE
:102A560016361736183619362CAE34EF15F036EF13
:102A660015F037EF15F01680D89029362A362B3612
:102A76002C362706D8A0280618AE44EF15F046EFE8
:102A860015F02AEF15F02E6A2CAE4CEF15F04EEF2E
:102A960015F072EF15F0FF0E29141E6EFF0E2A14A4
:102AA6001F6EFF0E2B14206E7F0E2C14216E1E50EF
:102AB6001F1020102110D8B463EF15F065EF15F044
:102AC60069EF15F0010E2E6E72EF15F016A06EEF7F
:102AD60015F070EF15F072EF15F065EF15F02E504A
:102AE600D8B478EF15F07AEF15F09EEF15F0010ED9
:102AF6001626000E17221822192219A085EF15F0A6
:102B060087EF15F09EEF15F016C01EF017C01FF0E8
:102B160018C020F019C021F02134213220321F3292
:102B26001E321EC016F01FC017F020C018F021C0BC
:102B360019F0274A282A28BEA9EF15F0285008E1DF
:102B46002728D8A0A9EF15F0ABEF15F0B6EF15F0D2
:102B5600000E286E2768000E166E000E176E000E09
:102B6600186E000E196E28BEC3EF15F0285006E148
:102B76002704D8B0C1EF15F0C3EF15F0CFEF15F06D
:102B8600286A000E276E000E166E000E176E000ED7
:102B9600186E000E196E266A27C02DF02DA0D6EFEE
:102BA60015F0D8EF15F0DBEF15F0188EDCEF15F009
:102BB600189ED8902D30196E96EF14F012003250F0
:102BC600800B3B6E32503224416E31AEEDEF15F084
:102BD600EFEF15F0F0EF15F041804150D8B4F6EF65
:102BE60015F0F8EF15F00BEF16F04128D8A4FEEF1C
:102BF60015F000EF16F008EF16F0000E2F6E000E1F
:102C0600306E000E316E000E326E318E13EF16F0FE
:102C1600000E2F6E000E306E000E316E000E326EFC
:102C26003650800B3B1A36503624406E35AE1EEFBA
:102C360016F020EF16F021EF16F040804050D8B481
:102C460027EF16F029EF16F03CEF16F04028D8A42F
:102C56002FEF16F031EF16F039EF16F0000E336E47
:102C6600000E346E000E356E000E366E358E44EF55
:102C760016F0000E336E000E346E000E356E000E2A
:102C8600366E4050D8B44AEF16F04CEF16F054EFBB
:102C960016F04150D8A452EF16F054EF16F05EEF3E
:102CA60016F0000E2F6E000E306E000E316E000E06
:102CB600326EF4EF17F035502F02F3CF46F0F4CF13
:102CC60047F046503C6E3D6A3E6A3F6A4750426E48
:102CD600436A446A456A34503002F3CF46F0F4CF73
:102CE60047F046503C26000E3D223E223F224750EA
:102CF6004226000E43224422452233503102F3CFAE
:102D060046F0F4CF47F046503C26000E3D223E22C8
:102D16003F2247504226000E4322442245223EC00F
:102D26003FF03DC03EF03CC03DF03C6A33503002BF
:102D3600F3CF46F0F4CF47F046503C2647503D22AD
:102D4600000E3E22000E3F2234502F02F3CF46F0F3
:102D5600F4CF47F046503C2647503D22000E3E2217
:102D6600000E3F223EC03FF03DC03EF03CC03DF06D
:102D76003C6A33502F02F3CF46F0F4CF47F046506B
:102D86003C2647503D22000E3E22000E3F22355083
:102D96003002F3CF46F0F4CF47F046504226475074
:102DA6004322000E4422000E452234503102F3CF56
:102DB60046F0F4CF47F04650422647504322000ED5
:102DC6004422000E452235503102F3CF46F0F4CFAF
:102DD60047F04650376E4750386E396A3A6A39C0FE
:102DE6003AF038C039F037C038F0376A37504226E3
:102DF60038504322395044223A5045223CC037F0DD
:102E06003DC038F03EC039F03FC03AF0190E11EF20
:102E160017F0D8903A32393238323732E82E0CEF82
:102E260017F03750422638504322395044223A5040
:102E360045223EC03FF03DC03EF03CC03DF03C6AFE
:102E4600405041C037F0386A3726000E3822820ECD
:102E56003724466EFF0E3820476E47EF17F0D8909E
:102E660042364336443645363FAE3CEF17F03EEF2A
:102E760017F03FEF17F04280D8903C363D363E368D
:102E86003F364606D8A0470644AE4CEF17F04EEF45
:102E960017F032EF17F0406A3FAE54EF17F056EFD7
:102EA60017F07AEF17F0FF0E3C14376EFF0E3D1445
:102EB600386EFF0E3E14396E7F0E3F143A6E375051
:102EC600381039103A10D8B46BEF17F06DEF17F0D1
:102ED60071EF17F0010E406E7AEF17F042A076EF11
:102EE60017F078EF17F07AEF17F06DEF17F0405004
:102EF600D8B480EF17F082EF17F0A6EF17F0010EA7
:102F06004226000E43224422452245A08DEF17F0AB
:102F16008FEF17F0A6EF17F042C037F043C038F036
:102F260044C039F045C03AF03A343A323932383290
:102F3600373237C042F038C043F039C044F03AC0A7
:102F460045F0464A472A47BEB1EF17F0475008E119
:102F56004628D8A0B1EF17F0B3EF17F0BDEF17F082
:102F6600000E426E000E436E800E446E7F0E456E5E
:102F7600EAEF17F047BECAEF17F0475006E14604DE
:102F8600D8B0C8EF17F0CAEF17F0D5EF17F0000E5C
:102F9600426E000E436E000E446E000E456E3B6A96
:102FA600EAEF17F046C041F0FF0E4216FF0E431639
:102FB6007F0E4416000E451641A0E4EF17F0E6EF2B
:102FC60017F0E7EF17F0448ED8904130456E3B502E
:102FD600451242C02FF043C030F044C031F045C026
:102FE60032F01200004C4546004F46460052494713
:0B2FF6000048415A0000D4EF0FF0012A
:020000040020DA
:08000000FFFFFFFFFFFFFFFF00
:020000040030CA
:0E000000FF071F1FFF8285FF0FC00FE00F409C
:00000001FF
